{
    "address": "0x8f4bEAb50E5a6c3a8478Bb8acB393BF19Fec3fAb",
    "abi": [
        {
            "inputs": [
                {
                    "internalType": "string",
                    "name": "_uri",
                    "type": "string"
                },
                {
                    "internalType": "string",
                    "name": "_name",
                    "type": "string"
                },
                {
                    "internalType": "string",
                    "name": "_symbol",
                    "type": "string"
                }
            ],
            "stateMutability": "nonpayable",
            "type": "constructor"
        },
        {
            "anonymous": false,
            "inputs": [
                {
                    "indexed": true,
                    "internalType": "address",
                    "name": "account",
                    "type": "address"
                },
                {
                    "indexed": true,
                    "internalType": "address",
                    "name": "operator",
                    "type": "address"
                },
                {
                    "indexed": false,
                    "internalType": "bool",
                    "name": "approved",
                    "type": "bool"
                }
            ],
            "name": "ApprovalForAll",
            "type": "event"
        },
        {
            "anonymous": false,
            "inputs": [
                {
                    "indexed": true,
                    "internalType": "address",
                    "name": "previousOwner",
                    "type": "address"
                },
                {
                    "indexed": true,
                    "internalType": "address",
                    "name": "newOwner",
                    "type": "address"
                }
            ],
            "name": "OwnershipTransferred",
            "type": "event"
        },
        {
            "anonymous": false,
            "inputs": [
                {
                    "indexed": true,
                    "internalType": "address",
                    "name": "operator",
                    "type": "address"
                },
                {
                    "indexed": true,
                    "internalType": "address",
                    "name": "from",
                    "type": "address"
                },
                {
                    "indexed": true,
                    "internalType": "address",
                    "name": "to",
                    "type": "address"
                },
                {
                    "indexed": false,
                    "internalType": "uint256[]",
                    "name": "ids",
                    "type": "uint256[]"
                },
                {
                    "indexed": false,
                    "internalType": "uint256[]",
                    "name": "values",
                    "type": "uint256[]"
                }
            ],
            "name": "TransferBatch",
            "type": "event"
        },
        {
            "anonymous": false,
            "inputs": [
                {
                    "indexed": true,
                    "internalType": "address",
                    "name": "operator",
                    "type": "address"
                },
                {
                    "indexed": true,
                    "internalType": "address",
                    "name": "from",
                    "type": "address"
                },
                {
                    "indexed": true,
                    "internalType": "address",
                    "name": "to",
                    "type": "address"
                },
                {
                    "indexed": false,
                    "internalType": "uint256",
                    "name": "id",
                    "type": "uint256"
                },
                {
                    "indexed": false,
                    "internalType": "uint256",
                    "name": "value",
                    "type": "uint256"
                }
            ],
            "name": "TransferSingle",
            "type": "event"
        },
        {
            "anonymous": false,
            "inputs": [
                {
                    "indexed": false,
                    "internalType": "string",
                    "name": "value",
                    "type": "string"
                },
                {
                    "indexed": true,
                    "internalType": "uint256",
                    "name": "id",
                    "type": "uint256"
                }
            ],
            "name": "URI",
            "type": "event"
        },
        {
            "inputs": [
                {
                    "internalType": "address",
                    "name": "account",
                    "type": "address"
                },
                {
                    "internalType": "uint256",
                    "name": "id",
                    "type": "uint256"
                }
            ],
            "name": "balanceOf",
            "outputs": [
                {
                    "internalType": "uint256",
                    "name": "",
                    "type": "uint256"
                }
            ],
            "stateMutability": "view",
            "type": "function"
        },
        {
            "inputs": [
                {
                    "internalType": "address[]",
                    "name": "accounts",
                    "type": "address[]"
                },
                {
                    "internalType": "uint256[]",
                    "name": "ids",
                    "type": "uint256[]"
                }
            ],
            "name": "balanceOfBatch",
            "outputs": [
                {
                    "internalType": "uint256[]",
                    "name": "",
                    "type": "uint256[]"
                }
            ],
            "stateMutability": "view",
            "type": "function"
        },
        {
            "inputs": [],
            "name": "baseURI",
            "outputs": [
                {
                    "internalType": "string",
                    "name": "",
                    "type": "string"
                }
            ],
            "stateMutability": "view",
            "type": "function"
        },
        {
            "inputs": [
                {
                    "internalType": "uint256",
                    "name": "_quantity",
                    "type": "uint256"
                },
                {
                    "internalType": "uint256",
                    "name": "_id",
                    "type": "uint256"
                }
            ],
            "name": "claimItem",
            "outputs": [],
            "stateMutability": "nonpayable",
            "type": "function"
        },
        {
            "inputs": [
                {
                    "internalType": "uint256[]",
                    "name": "_quantities",
                    "type": "uint256[]"
                },
                {
                    "internalType": "uint256[]",
                    "name": "_ids",
                    "type": "uint256[]"
                }
            ],
            "name": "claimItems",
            "outputs": [],
            "stateMutability": "nonpayable",
            "type": "function"
        },
        {
            "inputs": [
                {
                    "internalType": "uint256",
                    "name": "_id",
                    "type": "uint256"
                },
                {
                    "internalType": "uint256",
                    "name": "_maxPerWallet",
                    "type": "uint256"
                },
                {
                    "internalType": "uint256",
                    "name": "_maxToMint",
                    "type": "uint256"
                },
                {
                    "internalType": "uint256",
                    "name": "_initialSupply",
                    "type": "uint256"
                },
                {
                    "internalType": "uint256",
                    "name": "_maxSupply",
                    "type": "uint256"
                }
            ],
            "name": "createItem",
            "outputs": [],
            "stateMutability": "nonpayable",
            "type": "function"
        },
        {
            "inputs": [
                {
                    "internalType": "uint256[]",
                    "name": "_ids",
                    "type": "uint256[]"
                },
                {
                    "internalType": "uint256[]",
                    "name": "_maxPerWallet",
                    "type": "uint256[]"
                },
                {
                    "internalType": "uint256[]",
                    "name": "_maxToMint",
                    "type": "uint256[]"
                },
                {
                    "internalType": "uint256[]",
                    "name": "_initialSupply",
                    "type": "uint256[]"
                },
                {
                    "internalType": "uint256[]",
                    "name": "_maxSupply",
                    "type": "uint256[]"
                }
            ],
            "name": "createItems",
            "outputs": [],
            "stateMutability": "nonpayable",
            "type": "function"
        },
        {
            "inputs": [
                {
                    "internalType": "uint256",
                    "name": "id",
                    "type": "uint256"
                }
            ],
            "name": "exists",
            "outputs": [
                {
                    "internalType": "bool",
                    "name": "",
                    "type": "bool"
                }
            ],
            "stateMutability": "view",
            "type": "function"
        },
        {
            "inputs": [],
            "name": "flipSaleState",
            "outputs": [],
            "stateMutability": "nonpayable",
            "type": "function"
        },
        {
            "inputs": [
                {
                    "internalType": "uint256",
                    "name": "",
                    "type": "uint256"
                }
            ],
            "name": "idStats",
            "outputs": [
                {
                    "internalType": "uint256",
                    "name": "maxSupply",
                    "type": "uint256"
                },
                {
                    "internalType": "uint256",
                    "name": "maxToMint",
                    "type": "uint256"
                },
                {
                    "internalType": "uint256",
                    "name": "maxPerWallet",
                    "type": "uint256"
                },
                {
                    "internalType": "uint256",
                    "name": "initialSupply",
                    "type": "uint256"
                }
            ],
            "stateMutability": "view",
            "type": "function"
        },
        {
            "inputs": [
                {
                    "internalType": "address",
                    "name": "account",
                    "type": "address"
                },
                {
                    "internalType": "address",
                    "name": "operator",
                    "type": "address"
                }
            ],
            "name": "isApprovedForAll",
            "outputs": [
                {
                    "internalType": "bool",
                    "name": "",
                    "type": "bool"
                }
            ],
            "stateMutability": "view",
            "type": "function"
        },
        {
            "inputs": [],
            "name": "name",
            "outputs": [
                {
                    "internalType": "string",
                    "name": "",
                    "type": "string"
                }
            ],
            "stateMutability": "view",
            "type": "function"
        },
        {
            "inputs": [],
            "name": "owner",
            "outputs": [
                {
                    "internalType": "address",
                    "name": "",
                    "type": "address"
                }
            ],
            "stateMutability": "view",
            "type": "function"
        },
        {
            "inputs": [],
            "name": "renounceOwnership",
            "outputs": [],
            "stateMutability": "nonpayable",
            "type": "function"
        },
        {
            "inputs": [
                {
                    "internalType": "address",
                    "name": "from",
                    "type": "address"
                },
                {
                    "internalType": "address",
                    "name": "to",
                    "type": "address"
                },
                {
                    "internalType": "uint256[]",
                    "name": "ids",
                    "type": "uint256[]"
                },
                {
                    "internalType": "uint256[]",
                    "name": "amounts",
                    "type": "uint256[]"
                },
                {
                    "internalType": "bytes",
                    "name": "data",
                    "type": "bytes"
                }
            ],
            "name": "safeBatchTransferFrom",
            "outputs": [],
            "stateMutability": "nonpayable",
            "type": "function"
        },
        {
            "inputs": [
                {
                    "internalType": "address",
                    "name": "from",
                    "type": "address"
                },
                {
                    "internalType": "address",
                    "name": "to",
                    "type": "address"
                },
                {
                    "internalType": "uint256",
                    "name": "id",
                    "type": "uint256"
                },
                {
                    "internalType": "uint256",
                    "name": "amount",
                    "type": "uint256"
                },
                {
                    "internalType": "bytes",
                    "name": "data",
                    "type": "bytes"
                }
            ],
            "name": "safeTransferFrom",
            "outputs": [],
            "stateMutability": "nonpayable",
            "type": "function"
        },
        {
            "inputs": [],
            "name": "saleIsActive",
            "outputs": [
                {
                    "internalType": "bool",
                    "name": "",
                    "type": "bool"
                }
            ],
            "stateMutability": "view",
            "type": "function"
        },
        {
            "inputs": [
                {
                    "internalType": "address",
                    "name": "operator",
                    "type": "address"
                },
                {
                    "internalType": "bool",
                    "name": "approved",
                    "type": "bool"
                }
            ],
            "name": "setApprovalForAll",
            "outputs": [],
            "stateMutability": "nonpayable",
            "type": "function"
        },
        {
            "inputs": [
                {
                    "internalType": "string",
                    "name": "_baseURI",
                    "type": "string"
                }
            ],
            "name": "setBaseURI",
            "outputs": [],
            "stateMutability": "nonpayable",
            "type": "function"
        },
        {
            "inputs": [
                {
                    "internalType": "uint256",
                    "name": "_initialSupply",
                    "type": "uint256"
                },
                {
                    "internalType": "uint256",
                    "name": "_id",
                    "type": "uint256"
                }
            ],
            "name": "setInitialSupply",
            "outputs": [],
            "stateMutability": "nonpayable",
            "type": "function"
        },
        {
            "inputs": [
                {
                    "internalType": "uint256",
                    "name": "_maxPerWallet",
                    "type": "uint256"
                },
                {
                    "internalType": "uint256",
                    "name": "_id",
                    "type": "uint256"
                }
            ],
            "name": "setMaxPerWallet",
            "outputs": [],
            "stateMutability": "nonpayable",
            "type": "function"
        },
        {
            "inputs": [
                {
                    "internalType": "uint256",
                    "name": "_maxSupply",
                    "type": "uint256"
                },
                {
                    "internalType": "uint256",
                    "name": "_id",
                    "type": "uint256"
                }
            ],
            "name": "setMaxSupply",
            "outputs": [],
            "stateMutability": "nonpayable",
            "type": "function"
        },
        {
            "inputs": [
                {
                    "internalType": "uint256",
                    "name": "_maxToMint",
                    "type": "uint256"
                },
                {
                    "internalType": "uint256",
                    "name": "_id",
                    "type": "uint256"
                }
            ],
            "name": "setMaxToMint",
            "outputs": [],
            "stateMutability": "nonpayable",
            "type": "function"
        },
        {
            "inputs": [
                {
                    "internalType": "string",
                    "name": "_newURI",
                    "type": "string"
                }
            ],
            "name": "setURI",
            "outputs": [],
            "stateMutability": "nonpayable",
            "type": "function"
        },
        {
            "inputs": [
                {
                    "internalType": "bytes4",
                    "name": "interfaceId",
                    "type": "bytes4"
                }
            ],
            "name": "supportsInterface",
            "outputs": [
                {
                    "internalType": "bool",
                    "name": "",
                    "type": "bool"
                }
            ],
            "stateMutability": "view",
            "type": "function"
        },
        {
            "inputs": [],
            "name": "symbol",
            "outputs": [
                {
                    "internalType": "string",
                    "name": "",
                    "type": "string"
                }
            ],
            "stateMutability": "view",
            "type": "function"
        },
        {
            "inputs": [
                {
                    "internalType": "uint256",
                    "name": "id",
                    "type": "uint256"
                }
            ],
            "name": "totalSupply",
            "outputs": [
                {
                    "internalType": "uint256",
                    "name": "",
                    "type": "uint256"
                }
            ],
            "stateMutability": "view",
            "type": "function"
        },
        {
            "inputs": [
                {
                    "internalType": "address",
                    "name": "newOwner",
                    "type": "address"
                }
            ],
            "name": "transferOwnership",
            "outputs": [],
            "stateMutability": "nonpayable",
            "type": "function"
        },
        {
            "inputs": [
                {
                    "internalType": "uint256",
                    "name": "_id",
                    "type": "uint256"
                }
            ],
            "name": "uri",
            "outputs": [
                {
                    "internalType": "string",
                    "name": "",
                    "type": "string"
                }
            ],
            "stateMutability": "view",
            "type": "function"
        },
        {
            "inputs": [],
            "name": "withdraw",
            "outputs": [],
            "stateMutability": "nonpayable",
            "type": "function"
        }
    ],
    "transactionHash": "0xeadb86259be888442db9bc9f180853505b20ef088e2d5a7eebbb934f591d6c70",
    "args": [
        "https://samotclub.mypinata.cloud/ipfs/QmeLn1Vx2FLMQypLPqQfohYqEt4kJnUx5DUpc3pmwGU85w/{id}.json",
        "DonRouch",
        "DR"
    ],
    "numDeployments": 1,
    "solcInputHash": "297b42efd41e36485927001e0f8650ba",
    "bytecode": "0x60806040526000600660006101000a81548160ff0219169083151502179055506040518060800160405280605581526020016200634060559139600990805190602001906200005092919062000981565b503480156200005e57600080fd5b506040516200639538038062006395833981810160405281019062000084919062000bce565b8262000096816200012c60201b60201c565b50620000b7620000ab6200014860201b60201c565b6200015060201b60201c565b60016005819055508160079080519060200190620000d792919062000981565b508060089080519060200190620000f092919062000981565b5062000109600180600180600a6200021660201b60201c565b620001236002600360026001600a6200021660201b60201c565b5050506200139c565b80600290805190602001906200014492919062000981565b5050565b600033905090565b6000600460009054906101000a900473ffffffffffffffffffffffffffffffffffffffff16905081600460006101000a81548173ffffffffffffffffffffffffffffffffffffffff021916908373ffffffffffffffffffffffffffffffffffffffff1602179055508173ffffffffffffffffffffffffffffffffffffffff168173ffffffffffffffffffffffffffffffffffffffff167f8be0079c531659141344cd1fd0a4f28419497f9722a3daafe3b4186f6b6457e060405160405180910390a35050565b620002266200014860201b60201c565b73ffffffffffffffffffffffffffffffffffffffff166200024c6200033b60201b60201c565b73ffffffffffffffffffffffffffffffffffffffff1614620002a5576040517f08c379a00000000000000000000000000000000000000000000000000000000081526004016200029c9062000ce8565b60405180910390fd5b83600a60008781526020019081526020016000206002018190555082600a60008781526020019081526020016000206001018190555081600a60008781526020019081526020016000206003018190555080600a60008781526020019081526020016000206000018190555062000334338684604051806020016040528060008152506200036560201b60201c565b5050505050565b6000600460009054906101000a900473ffffffffffffffffffffffffffffffffffffffff16905090565b600073ffffffffffffffffffffffffffffffffffffffff168473ffffffffffffffffffffffffffffffffffffffff161415620003d8576040517f08c379a0000000000000000000000000000000000000000000000000000000008152600401620003cf9062000d80565b60405180910390fd5b6000620003ea6200014860201b60201c565b9050620004238160008762000405886200052a60201b60201c565b62000416886200052a60201b60201c565b87620005ab60201b60201c565b8260008086815260200190815260200160002060008773ffffffffffffffffffffffffffffffffffffffff1673ffffffffffffffffffffffffffffffffffffffff168152602001908152602001600020600082825462000484919062000ddb565b925050819055508473ffffffffffffffffffffffffffffffffffffffff16600073ffffffffffffffffffffffffffffffffffffffff168273ffffffffffffffffffffffffffffffffffffffff167fc3d58168c5ae7397731d063d5bbf3d657854427343f4c083240f7aacaa2d0f6287876040516200050492919062000e49565b60405180910390a462000523816000878787876200074c60201b60201c565b5050505050565b60606000600167ffffffffffffffff8111156200054c576200054b62000a60565b5b6040519080825280602002602001820160405280156200057b5781602001602082028036833780820191505090505b509050828160008151811062000596576200059562000e76565b5b60200260200101818152505080915050919050565b620005c68686868686866200095660201b62001d4f1760201c565b600073ffffffffffffffffffffffffffffffffffffffff168573ffffffffffffffffffffffffffffffffffffffff161415620006855760005b835181101562000683578281815181106200061f576200061e62000e76565b5b60200260200101516003600086848151811062000641576200064062000e76565b5b60200260200101518152602001908152602001600020600082825462000668919062000ddb565b92505081905550806200067b9062000ea5565b9050620005ff565b505b600073ffffffffffffffffffffffffffffffffffffffff168473ffffffffffffffffffffffffffffffffffffffff161415620007445760005b83518110156200074257828181518110620006de57620006dd62000e76565b5b6020026020010151600360008684815181106200070057620006ff62000e76565b5b60200260200101518152602001908152602001600020600082825462000727919062000ef3565b92505081905550806200073a9062000ea5565b9050620006be565b505b505050505050565b620007788473ffffffffffffffffffffffffffffffffffffffff166200095e60201b62001d571760201c565b156200094e578373ffffffffffffffffffffffffffffffffffffffff1663f23a6e6187878686866040518663ffffffff1660e01b8152600401620007c195949392919062000fd0565b602060405180830381600087803b158015620007dc57600080fd5b505af19250505080156200081057506040513d601f19601f820116820180604052508101906200080d919062001091565b60015b620008c2576200081f620010d0565b806308c379a0141562000883575062000837620010f5565b8062000844575062000885565b806040517f08c379a00000000000000000000000000000000000000000000000000000000081526004016200087a9190620011e3565b60405180910390fd5b505b6040517f08c379a0000000000000000000000000000000000000000000000000000000008152600401620008b9906200127d565b60405180910390fd5b63f23a6e6160e01b7bffffffffffffffffffffffffffffffffffffffffffffffffffffffff1916817bffffffffffffffffffffffffffffffffffffffffffffffffffffffff1916146200094c576040517f08c379a0000000000000000000000000000000000000000000000000000000008152600401620009439062001315565b60405180910390fd5b505b505050505050565b505050505050565b6000808273ffffffffffffffffffffffffffffffffffffffff163b119050919050565b8280546200098f9062001366565b90600052602060002090601f016020900481019282620009b35760008555620009ff565b82601f10620009ce57805160ff1916838001178555620009ff565b82800160010185558215620009ff579182015b82811115620009fe578251825591602001919060010190620009e1565b5b50905062000a0e919062000a12565b5090565b5b8082111562000a2d57600081600090555060010162000a13565b5090565b6000604051905090565b600080fd5b600080fd5b600080fd5b600080fd5b6000601f19601f8301169050919050565b7f4e487b7100000000000000000000000000000000000000000000000000000000600052604160045260246000fd5b62000a9a8262000a4f565b810181811067ffffffffffffffff8211171562000abc5762000abb62000a60565b5b80604052505050565b600062000ad162000a31565b905062000adf828262000a8f565b919050565b600067ffffffffffffffff82111562000b025762000b0162000a60565b5b62000b0d8262000a4f565b9050602081019050919050565b60005b8381101562000b3a57808201518184015260208101905062000b1d565b8381111562000b4a576000848401525b50505050565b600062000b6762000b618462000ae4565b62000ac5565b90508281526020810184848401111562000b865762000b8562000a4a565b5b62000b9384828562000b1a565b509392505050565b600082601f83011262000bb35762000bb262000a45565b5b815162000bc584826020860162000b50565b91505092915050565b60008060006060848603121562000bea5762000be962000a3b565b5b600084015167ffffffffffffffff81111562000c0b5762000c0a62000a40565b5b62000c198682870162000b9b565b935050602084015167ffffffffffffffff81111562000c3d5762000c3c62000a40565b5b62000c4b8682870162000b9b565b925050604084015167ffffffffffffffff81111562000c6f5762000c6e62000a40565b5b62000c7d8682870162000b9b565b9150509250925092565b600082825260208201905092915050565b7f4f776e61626c653a2063616c6c6572206973206e6f7420746865206f776e6572600082015250565b600062000cd060208362000c87565b915062000cdd8262000c98565b602082019050919050565b6000602082019050818103600083015262000d038162000cc1565b9050919050565b7f455243313135353a206d696e7420746f20746865207a65726f2061646472657360008201527f7300000000000000000000000000000000000000000000000000000000000000602082015250565b600062000d6860218362000c87565b915062000d758262000d0a565b604082019050919050565b6000602082019050818103600083015262000d9b8162000d59565b9050919050565b6000819050919050565b7f4e487b7100000000000000000000000000000000000000000000000000000000600052601160045260246000fd5b600062000de88262000da2565b915062000df58362000da2565b9250827fffffffffffffffffffffffffffffffffffffffffffffffffffffffffffffffff0382111562000e2d5762000e2c62000dac565b5b828201905092915050565b62000e438162000da2565b82525050565b600060408201905062000e60600083018562000e38565b62000e6f602083018462000e38565b9392505050565b7f4e487b7100000000000000000000000000000000000000000000000000000000600052603260045260246000fd5b600062000eb28262000da2565b91507fffffffffffffffffffffffffffffffffffffffffffffffffffffffffffffffff82141562000ee85762000ee762000dac565b5b600182019050919050565b600062000f008262000da2565b915062000f0d8362000da2565b92508282101562000f235762000f2262000dac565b5b828203905092915050565b600073ffffffffffffffffffffffffffffffffffffffff82169050919050565b600062000f5b8262000f2e565b9050919050565b62000f6d8162000f4e565b82525050565b600081519050919050565b600082825260208201905092915050565b600062000f9c8262000f73565b62000fa8818562000f7e565b935062000fba81856020860162000b1a565b62000fc58162000a4f565b840191505092915050565b600060a08201905062000fe7600083018862000f62565b62000ff6602083018762000f62565b62001005604083018662000e38565b62001014606083018562000e38565b818103608083015262001028818462000f8f565b90509695505050505050565b60007fffffffff0000000000000000000000000000000000000000000000000000000082169050919050565b6200106b8162001034565b81146200107757600080fd5b50565b6000815190506200108b8162001060565b92915050565b600060208284031215620010aa57620010a962000a3b565b5b6000620010ba848285016200107a565b91505092915050565b60008160e01c9050919050565b600060033d1115620010f25760046000803e620010ef600051620010c3565b90505b90565b600060443d1015620011075762001194565b6200111162000a31565b60043d036004823e80513d602482011167ffffffffffffffff821117156200113b57505062001194565b808201805167ffffffffffffffff8111156200115b575050505062001194565b80602083010160043d0385018111156200117a57505050505062001194565b6200118b8260200185018662000a8f565b82955050505050505b90565b600081519050919050565b6000620011af8262001197565b620011bb818562000c87565b9350620011cd81856020860162000b1a565b620011d88162000a4f565b840191505092915050565b60006020820190508181036000830152620011ff8184620011a2565b905092915050565b7f455243313135353a207472616e7366657220746f206e6f6e204552433131353560008201527f526563656976657220696d706c656d656e746572000000000000000000000000602082015250565b60006200126560348362000c87565b9150620012728262001207565b604082019050919050565b60006020820190508181036000830152620012988162001256565b9050919050565b7f455243313135353a204552433131353552656365697665722072656a6563746560008201527f6420746f6b656e73000000000000000000000000000000000000000000000000602082015250565b6000620012fd60288362000c87565b91506200130a826200129f565b604082019050919050565b600060208201905081810360008301526200133081620012ee565b9050919050565b7f4e487b7100000000000000000000000000000000000000000000000000000000600052602260045260246000fd5b600060028204905060018216806200137f57607f821691505b6020821081141562001396576200139562001337565b5b50919050565b614f9480620013ac6000396000f3fe608060405234801561001057600080fd5b50600436106101d95760003560e01c80635f400b4d11610104578063a35a813d116100a2578063e985e9c511610071578063e985e9c514610517578063eb8d244414610547578063f242432a14610565578063f2fde38b14610581576101d9565b8063a35a813d1461047c578063a7dc7f2a14610498578063bd85b039146104b4578063d23f3670146104e4576101d9565b8063715018a6116100de578063715018a61461041a5780638da5cb5b1461042457806395d89b4114610442578063a22cb46514610460576101d9565b80635f400b4d146103c45780636c0360eb146103e05780636e277faa146103fe576101d9565b806337da577c1161017c57806353ac2e2f1161014b57806353ac2e2f1461035457806355f804b31461037057806356ad15f61461038c57806356d51e6f146103a8576101d9565b806337da577c146102ce5780633ccfd60b146102ea5780634e1273f4146102f45780634f558e7914610324576101d9565b806306fdde03116101b857806306fdde031461025a5780630e89341c146102785780632eb2c2d6146102a857806334918dfd146102c4576101d9565b8062fdd58e146101de57806301ffc9a71461020e57806302fe53051461023e575b600080fd5b6101f860048036038101906101f39190613207565b61059d565b6040516102059190613256565b60405180910390f35b610228600480360381019061022391906132c9565b610666565b6040516102359190613311565b60405180910390f35b61025860048036038101906102539190613472565b610748565b005b6102626107d0565b60405161026f9190613543565b60405180910390f35b610292600480360381019061028d9190613565565b61085e565b60405161029f9190613543565b60405180910390f35b6102c260048036038101906102bd91906136fb565b6108da565b005b6102cc61097b565b005b6102e860048036038101906102e391906137ca565b610a23565b005b6102f2610abe565b005b61030e600480360381019061030991906138cd565b610c3f565b60405161031b9190613a03565b60405180910390f35b61033e60048036038101906103399190613565565b610d58565b60405161034b9190613311565b60405180910390f35b61036e60048036038101906103699190613a80565b610d6c565b005b61038a60048036038101906103859190613472565b611132565b005b6103a660048036038101906103a191906137ca565b6111c8565b005b6103c260048036038101906103bd91906137ca565b611263565b005b6103de60048036038101906103d99190613b01565b6112fe565b005b6103e8611408565b6040516103f59190613543565b60405180910390f35b61041860048036038101906104139190613b7c565b611496565b005b6104226116c4565b005b61042c61174c565b6040516104399190613c92565b60405180910390f35b61044a611776565b6040516104579190613543565b60405180910390f35b61047a60048036038101906104759190613cd9565b611804565b005b610496600480360381019061049191906137ca565b61181a565b005b6104b260048036038101906104ad91906137ca565b6118b5565b005b6104ce60048036038101906104c99190613565565b611ac2565b6040516104db9190613256565b60405180910390f35b6104fe60048036038101906104f99190613565565b611adf565b60405161050e9493929190613d19565b60405180910390f35b610531600480360381019061052c9190613d5e565b611b0f565b60405161053e9190613311565b60405180910390f35b61054f611ba3565b60405161055c9190613311565b60405180910390f35b61057f600480360381019061057a9190613d9e565b611bb6565b005b61059b60048036038101906105969190613e35565b611c57565b005b60008073ffffffffffffffffffffffffffffffffffffffff168373ffffffffffffffffffffffffffffffffffffffff16141561060e576040517f08c379a000000000000000000000000000000000000000000000000000000000815260040161060590613ed4565b60405180910390fd5b60008083815260200190815260200160002060008473ffffffffffffffffffffffffffffffffffffffff1673ffffffffffffffffffffffffffffffffffffffff16815260200190815260200160002054905092915050565b60007fd9b67a26000000000000000000000000000000000000000000000000000000007bffffffffffffffffffffffffffffffffffffffffffffffffffffffff1916827bffffffffffffffffffffffffffffffffffffffffffffffffffffffff1916148061073157507f0e89341c000000000000000000000000000000000000000000000000000000007bffffffffffffffffffffffffffffffffffffffffffffffffffffffff1916827bffffffffffffffffffffffffffffffffffffffffffffffffffffffff1916145b80610741575061074082611d7a565b5b9050919050565b610750611de4565b73ffffffffffffffffffffffffffffffffffffffff1661076e61174c565b73ffffffffffffffffffffffffffffffffffffffff16146107c4576040517f08c379a00000000000000000000000000000000000000000000000000000000081526004016107bb90613f40565b60405180910390fd5b6107cd81611dec565b50565b600780546107dd90613f8f565b80601f016020809104026020016040519081016040528092919081815260200182805461080990613f8f565b80156108565780601f1061082b57610100808354040283529160200191610856565b820191906000526020600020905b81548152906001019060200180831161083957829003601f168201915b505050505081565b606061086982610d58565b6108a8576040517f08c379a000000000000000000000000000000000000000000000000000000000815260040161089f9061400d565b60405180910390fd5b60096108b383611e06565b6040516020016108c4929190614149565b6040516020818303038152906040529050919050565b6108e2611de4565b73ffffffffffffffffffffffffffffffffffffffff168573ffffffffffffffffffffffffffffffffffffffff161480610928575061092785610922611de4565b611b0f565b5b610967576040517f08c379a000000000000000000000000000000000000000000000000000000000815260040161095e906141ea565b60405180910390fd5b6109748585858585611f67565b5050505050565b610983611de4565b73ffffffffffffffffffffffffffffffffffffffff166109a161174c565b73ffffffffffffffffffffffffffffffffffffffff16146109f7576040517f08c379a00000000000000000000000000000000000000000000000000000000081526004016109ee90613f40565b60405180910390fd5b600660009054906101000a900460ff1615600660006101000a81548160ff021916908315150217905550565b610a2b611de4565b73ffffffffffffffffffffffffffffffffffffffff16610a4961174c565b73ffffffffffffffffffffffffffffffffffffffff1614610a9f576040517f08c379a0000000000000000000000000000000000000000000000000000000008152600401610a9690613f40565b60405180910390fd5b81600a6000838152602001908152602001600020600001819055505050565b610ac6611de4565b73ffffffffffffffffffffffffffffffffffffffff16610ae461174c565b73ffffffffffffffffffffffffffffffffffffffff1614610b3a576040517f08c379a0000000000000000000000000000000000000000000000000000000008152600401610b3190613f40565b60405180910390fd5b60026005541415610b80576040517f08c379a0000000000000000000000000000000000000000000000000000000008152600401610b7790614256565b60405180910390fd5b600260058190555060003373ffffffffffffffffffffffffffffffffffffffff1647604051610bae906142a7565b60006040518083038185875af1925050503d8060008114610beb576040519150601f19603f3d011682016040523d82523d6000602084013e610bf0565b606091505b5050905080610c34576040517f08c379a0000000000000000000000000000000000000000000000000000000008152600401610c2b90614308565b60405180910390fd5b506001600581905550565b60608151835114610c85576040517f08c379a0000000000000000000000000000000000000000000000000000000008152600401610c7c9061439a565b60405180910390fd5b6000835167ffffffffffffffff811115610ca257610ca1613347565b5b604051908082528060200260200182016040528015610cd05781602001602082028036833780820191505090505b50905060005b8451811015610d4d57610d1d858281518110610cf557610cf46143ba565b5b6020026020010151858381518110610d1057610d0f6143ba565b5b602002602001015161059d565b828281518110610d3057610d2f6143ba565b5b60200260200101818152505080610d4690614418565b9050610cd6565b508091505092915050565b600080610d6483611ac2565b119050919050565b600660009054906101000a900460ff16610dbb576040517f08c379a0000000000000000000000000000000000000000000000000000000008152600401610db2906144ad565b60405180910390fd5b60005b8282905081101561108e57600a6000848484818110610de057610ddf6143ba565b5b90506020020135815260200190815260200160002060000154610e46868684818110610e0f57610e0e6143ba565b5b90506020020135610e38868686818110610e2c57610e2b6143ba565b5b90506020020135611ac2565b61227b90919063ffffffff16565b1115610e87576040517f08c379a0000000000000000000000000000000000000000000000000000000008152600401610e7e90614519565b60405180910390fd5b6000858583818110610e9c57610e9b6143ba565b5b9050602002013511610ee3576040517f08c379a0000000000000000000000000000000000000000000000000000000008152600401610eda90614585565b60405180910390fd5b600a6000848484818110610efa57610ef96143ba565b5b90506020020135815260200190815260200160002060020154610f61868684818110610f2957610f286143ba565b5b90506020020135610f5333878787818110610f4757610f466143ba565b5b9050602002013561059d565b61227b90919063ffffffff16565b1115610fa2576040517f08c379a0000000000000000000000000000000000000000000000000000000008152600401610f99906145f1565b60405180910390fd5b600a6000848484818110610fb957610fb86143ba565b5b90506020020135815260200190815260200160002060010154858583818110610fe557610fe46143ba565b5b90506020020135111561102d576040517f08c379a000000000000000000000000000000000000000000000000000000000815260040161102490614683565b60405180910390fd5b61107a858583818110611043576110426143ba565b5b9050602002013561106c8585858181106110605761105f6143ba565b5b90506020020135611ac2565b61227b90919063ffffffff16565b50808061108690614418565b915050610dbe565b5061112c33838380806020026020016040519081016040528093929190818152602001838360200280828437600081840152601f19601f82011690508083019250505050505050868680806020026020016040519081016040528093929190818152602001838360200280828437600081840152601f19601f8201169050808301925050505050505060405180602001604052806000815250612291565b50505050565b61113a611de4565b73ffffffffffffffffffffffffffffffffffffffff1661115861174c565b73ffffffffffffffffffffffffffffffffffffffff16146111ae576040517f08c379a00000000000000000000000000000000000000000000000000000000081526004016111a590613f40565b60405180910390fd5b80600990805190602001906111c49291906130bc565b5050565b6111d0611de4565b73ffffffffffffffffffffffffffffffffffffffff166111ee61174c565b73ffffffffffffffffffffffffffffffffffffffff1614611244576040517f08c379a000000000000000000000000000000000000000000000000000000000815260040161123b90613f40565b60405180910390fd5b81600a6000838152602001908152602001600020600201819055505050565b61126b611de4565b73ffffffffffffffffffffffffffffffffffffffff1661128961174c565b73ffffffffffffffffffffffffffffffffffffffff16146112df576040517f08c379a00000000000000000000000000000000000000000000000000000000081526004016112d690613f40565b60405180910390fd5b81600a6000838152602001908152602001600020600301819055505050565b611306611de4565b73ffffffffffffffffffffffffffffffffffffffff1661132461174c565b73ffffffffffffffffffffffffffffffffffffffff161461137a576040517f08c379a000000000000000000000000000000000000000000000000000000000815260040161137190613f40565b60405180910390fd5b83600a60008781526020019081526020016000206002018190555082600a60008781526020019081526020016000206001018190555081600a60008781526020019081526020016000206003018190555080600a600087815260200190815260200160002060000181905550611401338684604051806020016040528060008152506124af565b5050505050565b6009805461141590613f8f565b80601f016020809104026020016040519081016040528092919081815260200182805461144190613f8f565b801561148e5780601f106114635761010080835404028352916020019161148e565b820191906000526020600020905b81548152906001019060200180831161147157829003601f168201915b505050505081565b61149e611de4565b73ffffffffffffffffffffffffffffffffffffffff166114bc61174c565b73ffffffffffffffffffffffffffffffffffffffff1614611512576040517f08c379a000000000000000000000000000000000000000000000000000000000815260040161150990613f40565b60405180910390fd5b60005b85518110156116bc57848181518110611531576115306143ba565b5b6020026020010151600a60008884815181106115505761154f6143ba565b5b60200260200101518152602001908152602001600020600201819055508381815181106115805761157f6143ba565b5b6020026020010151600a600088848151811061159f5761159e6143ba565b5b60200260200101518152602001908152602001600020600101819055508281815181106115cf576115ce6143ba565b5b6020026020010151600a60008884815181106115ee576115ed6143ba565b5b602002602001015181526020019081526020016000206003018190555081818151811061161e5761161d6143ba565b5b6020026020010151600a600088848151811061163d5761163c6143ba565b5b60200260200101518152602001908152602001600020600001819055506116a933878381518110611671576116706143ba565b5b602002602001015185848151811061168c5761168b6143ba565b5b6020026020010151604051806020016040528060008152506124af565b80806116b490614418565b915050611515565b505050505050565b6116cc611de4565b73ffffffffffffffffffffffffffffffffffffffff166116ea61174c565b73ffffffffffffffffffffffffffffffffffffffff1614611740576040517f08c379a000000000000000000000000000000000000000000000000000000000815260040161173790613f40565b60405180910390fd5b61174a6000612645565b565b6000600460009054906101000a900473ffffffffffffffffffffffffffffffffffffffff16905090565b6008805461178390613f8f565b80601f01602080910402602001604051908101604052809291908181526020018280546117af90613f8f565b80156117fc5780601f106117d1576101008083540402835291602001916117fc565b820191906000526020600020905b8154815290600101906020018083116117df57829003601f168201915b505050505081565b61181661180f611de4565b838361270b565b5050565b611822611de4565b73ffffffffffffffffffffffffffffffffffffffff1661184061174c565b73ffffffffffffffffffffffffffffffffffffffff1614611896576040517f08c379a000000000000000000000000000000000000000000000000000000000815260040161188d90613f40565b60405180910390fd5b81600a6000838152602001908152602001600020600101819055505050565b600660009054906101000a900460ff16611904576040517f08c379a00000000000000000000000000000000000000000000000000000000081526004016118fb906144ad565b60405180910390fd5b600a6000828152602001908152602001600020600001546119368361192884611ac2565b61227b90919063ffffffff16565b1115611977576040517f08c379a000000000000000000000000000000000000000000000000000000000815260040161196e90614519565b60405180910390fd5b600082116119ba576040517f08c379a00000000000000000000000000000000000000000000000000000000081526004016119b190614585565b60405180910390fd5b600a6000828152602001908152602001600020600201546119ed836119df338561059d565b61227b90919063ffffffff16565b1115611a2e576040517f08c379a0000000000000000000000000000000000000000000000000000000008152600401611a25906145f1565b60405180910390fd5b600a600082815260200190815260200160002060010154821115611a87576040517f08c379a0000000000000000000000000000000000000000000000000000000008152600401611a7e90614683565b60405180910390fd5b611aa2338284604051806020016040528060008152506124af565b611abd82611aaf83611ac2565b61227b90919063ffffffff16565b505050565b600060036000838152602001908152602001600020549050919050565b600a6020528060005260406000206000915090508060000154908060010154908060020154908060030154905084565b6000600160008473ffffffffffffffffffffffffffffffffffffffff1673ffffffffffffffffffffffffffffffffffffffff16815260200190815260200160002060008373ffffffffffffffffffffffffffffffffffffffff1673ffffffffffffffffffffffffffffffffffffffff16815260200190815260200160002060009054906101000a900460ff16905092915050565b600660009054906101000a900460ff1681565b611bbe611de4565b73ffffffffffffffffffffffffffffffffffffffff168573ffffffffffffffffffffffffffffffffffffffff161480611c045750611c0385611bfe611de4565b611b0f565b5b611c43576040517f08c379a0000000000000000000000000000000000000000000000000000000008152600401611c3a90614715565b60405180910390fd5b611c508585858585612878565b5050505050565b611c5f611de4565b73ffffffffffffffffffffffffffffffffffffffff16611c7d61174c565b73ffffffffffffffffffffffffffffffffffffffff1614611cd3576040517f08c379a0000000000000000000000000000000000000000000000000000000008152600401611cca90613f40565b60405180910390fd5b600073ffffffffffffffffffffffffffffffffffffffff168173ffffffffffffffffffffffffffffffffffffffff161415611d43576040517f08c379a0000000000000000000000000000000000000000000000000000000008152600401611d3a906147a7565b60405180910390fd5b611d4c81612645565b50565b505050505050565b6000808273ffffffffffffffffffffffffffffffffffffffff163b119050919050565b60007f01ffc9a7000000000000000000000000000000000000000000000000000000007bffffffffffffffffffffffffffffffffffffffffffffffffffffffff1916827bffffffffffffffffffffffffffffffffffffffffffffffffffffffff1916149050919050565b600033905090565b8060029080519060200190611e029291906130bc565b5050565b60606000821415611e4e576040518060400160405280600181526020017f30000000000000000000000000000000000000000000000000000000000000008152509050611f62565b600082905060005b60008214611e80578080611e6990614418565b915050600a82611e7991906147f6565b9150611e56565b60008167ffffffffffffffff811115611e9c57611e9b613347565b5b6040519080825280601f01601f191660200182016040528015611ece5781602001600182028036833780820191505090505b5090505b60008514611f5b57600182611ee79190614827565b9150600a85611ef6919061485b565b6030611f02919061488c565b60f81b818381518110611f1857611f176143ba565b5b60200101907effffffffffffffffffffffffffffffffffffffffffffffffffffffffffffff1916908160001a905350600a85611f5491906147f6565b9450611ed2565b8093505050505b919050565b8151835114611fab576040517f08c379a0000000000000000000000000000000000000000000000000000000008152600401611fa290614954565b60405180910390fd5b600073ffffffffffffffffffffffffffffffffffffffff168473ffffffffffffffffffffffffffffffffffffffff16141561201b576040517f08c379a0000000000000000000000000000000000000000000000000000000008152600401612012906149e6565b60405180910390fd5b6000612025611de4565b9050612035818787878787612afa565b60005b84518110156121e6576000858281518110612056576120556143ba565b5b602002602001015190506000858381518110612075576120746143ba565b5b60200260200101519050600080600084815260200190815260200160002060008b73ffffffffffffffffffffffffffffffffffffffff1673ffffffffffffffffffffffffffffffffffffffff16815260200190815260200160002054905081811015612116576040517f08c379a000000000000000000000000000000000000000000000000000000000815260040161210d90614a78565b60405180910390fd5b81810360008085815260200190815260200160002060008c73ffffffffffffffffffffffffffffffffffffffff1673ffffffffffffffffffffffffffffffffffffffff168152602001908152602001600020819055508160008085815260200190815260200160002060008b73ffffffffffffffffffffffffffffffffffffffff1673ffffffffffffffffffffffffffffffffffffffff16815260200190815260200160002060008282546121cb919061488c565b92505081905550505050806121df90614418565b9050612038565b508473ffffffffffffffffffffffffffffffffffffffff168673ffffffffffffffffffffffffffffffffffffffff168273ffffffffffffffffffffffffffffffffffffffff167f4a39dc06d4c0dbc64b70af90fd698a233a518aa5d07e595d983b8c0526c8f7fb878760405161225d929190614a98565b60405180910390a4612273818787878787612c74565b505050505050565b60008183612289919061488c565b905092915050565b600073ffffffffffffffffffffffffffffffffffffffff168473ffffffffffffffffffffffffffffffffffffffff161415612301576040517f08c379a00000000000000000000000000000000000000000000000000000000081526004016122f890614b41565b60405180910390fd5b8151835114612345576040517f08c379a000000000000000000000000000000000000000000000000000000000815260040161233c90614954565b60405180910390fd5b600061234f611de4565b905061236081600087878787612afa565b60005b84518110156124195783818151811061237f5761237e6143ba565b5b602002602001015160008087848151811061239d5761239c6143ba565b5b6020026020010151815260200190815260200160002060008873ffffffffffffffffffffffffffffffffffffffff1673ffffffffffffffffffffffffffffffffffffffff16815260200190815260200160002060008282546123ff919061488c565b92505081905550808061241190614418565b915050612363565b508473ffffffffffffffffffffffffffffffffffffffff16600073ffffffffffffffffffffffffffffffffffffffff168273ffffffffffffffffffffffffffffffffffffffff167f4a39dc06d4c0dbc64b70af90fd698a233a518aa5d07e595d983b8c0526c8f7fb8787604051612491929190614a98565b60405180910390a46124a881600087878787612c74565b5050505050565b600073ffffffffffffffffffffffffffffffffffffffff168473ffffffffffffffffffffffffffffffffffffffff16141561251f576040517f08c379a000000000000000000000000000000000000000000000000000000000815260040161251690614b41565b60405180910390fd5b6000612529611de4565b905061254a8160008761253b88612e5b565b61254488612e5b565b87612afa565b8260008086815260200190815260200160002060008773ffffffffffffffffffffffffffffffffffffffff1673ffffffffffffffffffffffffffffffffffffffff16815260200190815260200160002060008282546125a9919061488c565b925050819055508473ffffffffffffffffffffffffffffffffffffffff16600073ffffffffffffffffffffffffffffffffffffffff168273ffffffffffffffffffffffffffffffffffffffff167fc3d58168c5ae7397731d063d5bbf3d657854427343f4c083240f7aacaa2d0f628787604051612627929190614b61565b60405180910390a461263e81600087878787612ed5565b5050505050565b6000600460009054906101000a900473ffffffffffffffffffffffffffffffffffffffff16905081600460006101000a81548173ffffffffffffffffffffffffffffffffffffffff021916908373ffffffffffffffffffffffffffffffffffffffff1602179055508173ffffffffffffffffffffffffffffffffffffffff168173ffffffffffffffffffffffffffffffffffffffff167f8be0079c531659141344cd1fd0a4f28419497f9722a3daafe3b4186f6b6457e060405160405180910390a35050565b8173ffffffffffffffffffffffffffffffffffffffff168373ffffffffffffffffffffffffffffffffffffffff16141561277a576040517f08c379a000000000000000000000000000000000000000000000000000000000815260040161277190614bfc565b60405180910390fd5b80600160008573ffffffffffffffffffffffffffffffffffffffff1673ffffffffffffffffffffffffffffffffffffffff16815260200190815260200160002060008473ffffffffffffffffffffffffffffffffffffffff1673ffffffffffffffffffffffffffffffffffffffff16815260200190815260200160002060006101000a81548160ff0219169083151502179055508173ffffffffffffffffffffffffffffffffffffffff168373ffffffffffffffffffffffffffffffffffffffff167f17307eab39ab6107e8899845ad3d59bd9653f200f220920489ca2b5937696c318360405161286b9190613311565b60405180910390a3505050565b600073ffffffffffffffffffffffffffffffffffffffff168473ffffffffffffffffffffffffffffffffffffffff1614156128e8576040517f08c379a00000000000000000000000000000000000000000000000000000000081526004016128df906149e6565b60405180910390fd5b60006128f2611de4565b905061291281878761290388612e5b565b61290c88612e5b565b87612afa565b600080600086815260200190815260200160002060008873ffffffffffffffffffffffffffffffffffffffff1673ffffffffffffffffffffffffffffffffffffffff168152602001908152602001600020549050838110156129a9576040517f08c379a00000000000000000000000000000000000000000000000000000000081526004016129a090614a78565b60405180910390fd5b83810360008087815260200190815260200160002060008973ffffffffffffffffffffffffffffffffffffffff1673ffffffffffffffffffffffffffffffffffffffff168152602001908152602001600020819055508360008087815260200190815260200160002060008873ffffffffffffffffffffffffffffffffffffffff1673ffffffffffffffffffffffffffffffffffffffff1681526020019081526020016000206000828254612a5e919061488c565b925050819055508573ffffffffffffffffffffffffffffffffffffffff168773ffffffffffffffffffffffffffffffffffffffff168373ffffffffffffffffffffffffffffffffffffffff167fc3d58168c5ae7397731d063d5bbf3d657854427343f4c083240f7aacaa2d0f628888604051612adb929190614b61565b60405180910390a4612af1828888888888612ed5565b50505050505050565b612b08868686868686611d4f565b600073ffffffffffffffffffffffffffffffffffffffff168573ffffffffffffffffffffffffffffffffffffffff161415612bba5760005b8351811015612bb857828181518110612b5c57612b5b6143ba565b5b602002602001015160036000868481518110612b7b57612b7a6143ba565b5b602002602001015181526020019081526020016000206000828254612ba0919061488c565b9250508190555080612bb190614418565b9050612b40565b505b600073ffffffffffffffffffffffffffffffffffffffff168473ffffffffffffffffffffffffffffffffffffffff161415612c6c5760005b8351811015612c6a57828181518110612c0e57612c0d6143ba565b5b602002602001015160036000868481518110612c2d57612c2c6143ba565b5b602002602001015181526020019081526020016000206000828254612c529190614827565b9250508190555080612c6390614418565b9050612bf2565b505b505050505050565b612c938473ffffffffffffffffffffffffffffffffffffffff16611d57565b15612e53578373ffffffffffffffffffffffffffffffffffffffff1663bc197c8187878686866040518663ffffffff1660e01b8152600401612cd9959493929190614c71565b602060405180830381600087803b158015612cf357600080fd5b505af1925050508015612d2457506040513d601f19601f82011682018060405250810190612d219190614cee565b60015b612dca57612d30614d28565b806308c379a01415612d8d5750612d45614d4a565b80612d505750612d8f565b806040517f08c379a0000000000000000000000000000000000000000000000000000000008152600401612d849190613543565b60405180910390fd5b505b6040517f08c379a0000000000000000000000000000000000000000000000000000000008152600401612dc190614e52565b60405180910390fd5b63bc197c8160e01b7bffffffffffffffffffffffffffffffffffffffffffffffffffffffff1916817bffffffffffffffffffffffffffffffffffffffffffffffffffffffff191614612e51576040517f08c379a0000000000000000000000000000000000000000000000000000000008152600401612e4890614ee4565b60405180910390fd5b505b505050505050565b60606000600167ffffffffffffffff811115612e7a57612e79613347565b5b604051908082528060200260200182016040528015612ea85781602001602082028036833780820191505090505b5090508281600081518110612ec057612ebf6143ba565b5b60200260200101818152505080915050919050565b612ef48473ffffffffffffffffffffffffffffffffffffffff16611d57565b156130b4578373ffffffffffffffffffffffffffffffffffffffff1663f23a6e6187878686866040518663ffffffff1660e01b8152600401612f3a959493929190614f04565b602060405180830381600087803b158015612f5457600080fd5b505af1925050508015612f8557506040513d601f19601f82011682018060405250810190612f829190614cee565b60015b61302b57612f91614d28565b806308c379a01415612fee5750612fa6614d4a565b80612fb15750612ff0565b806040517f08c379a0000000000000000000000000000000000000000000000000000000008152600401612fe59190613543565b60405180910390fd5b505b6040517f08c379a000000000000000000000000000000000000000000000000000000000815260040161302290614e52565b60405180910390fd5b63f23a6e6160e01b7bffffffffffffffffffffffffffffffffffffffffffffffffffffffff1916817bffffffffffffffffffffffffffffffffffffffffffffffffffffffff1916146130b2576040517f08c379a00000000000000000000000000000000000000000000000000000000081526004016130a990614ee4565b60405180910390fd5b505b505050505050565b8280546130c890613f8f565b90600052602060002090601f0160209004810192826130ea5760008555613131565b82601f1061310357805160ff1916838001178555613131565b82800160010185558215613131579182015b82811115613130578251825591602001919060010190613115565b5b50905061313e9190613142565b5090565b5b8082111561315b576000816000905550600101613143565b5090565b6000604051905090565b600080fd5b600080fd5b600073ffffffffffffffffffffffffffffffffffffffff82169050919050565b600061319e82613173565b9050919050565b6131ae81613193565b81146131b957600080fd5b50565b6000813590506131cb816131a5565b92915050565b6000819050919050565b6131e4816131d1565b81146131ef57600080fd5b50565b600081359050613201816131db565b92915050565b6000806040838503121561321e5761321d613169565b5b600061322c858286016131bc565b925050602061323d858286016131f2565b9150509250929050565b613250816131d1565b82525050565b600060208201905061326b6000830184613247565b92915050565b60007fffffffff0000000000000000000000000000000000000000000000000000000082169050919050565b6132a681613271565b81146132b157600080fd5b50565b6000813590506132c38161329d565b92915050565b6000602082840312156132df576132de613169565b5b60006132ed848285016132b4565b91505092915050565b60008115159050919050565b61330b816132f6565b82525050565b60006020820190506133266000830184613302565b92915050565b600080fd5b600080fd5b6000601f19601f8301169050919050565b7f4e487b7100000000000000000000000000000000000000000000000000000000600052604160045260246000fd5b61337f82613336565b810181811067ffffffffffffffff8211171561339e5761339d613347565b5b80604052505050565b60006133b161315f565b90506133bd8282613376565b919050565b600067ffffffffffffffff8211156133dd576133dc613347565b5b6133e682613336565b9050602081019050919050565b82818337600083830152505050565b6000613415613410846133c2565b6133a7565b90508281526020810184848401111561343157613430613331565b5b61343c8482856133f3565b509392505050565b600082601f8301126134595761345861332c565b5b8135613469848260208601613402565b91505092915050565b60006020828403121561348857613487613169565b5b600082013567ffffffffffffffff8111156134a6576134a561316e565b5b6134b284828501613444565b91505092915050565b600081519050919050565b600082825260208201905092915050565b60005b838110156134f55780820151818401526020810190506134da565b83811115613504576000848401525b50505050565b6000613515826134bb565b61351f81856134c6565b935061352f8185602086016134d7565b61353881613336565b840191505092915050565b6000602082019050818103600083015261355d818461350a565b905092915050565b60006020828403121561357b5761357a613169565b5b6000613589848285016131f2565b91505092915050565b600067ffffffffffffffff8211156135ad576135ac613347565b5b602082029050602081019050919050565b600080fd5b60006135d66135d184613592565b6133a7565b905080838252602082019050602084028301858111156135f9576135f86135be565b5b835b81811015613622578061360e88826131f2565b8452602084019350506020810190506135fb565b5050509392505050565b600082601f8301126136415761364061332c565b5b81356136518482602086016135c3565b91505092915050565b600067ffffffffffffffff82111561367557613674613347565b5b61367e82613336565b9050602081019050919050565b600061369e6136998461365a565b6133a7565b9050828152602081018484840111156136ba576136b9613331565b5b6136c58482856133f3565b509392505050565b600082601f8301126136e2576136e161332c565b5b81356136f284826020860161368b565b91505092915050565b600080600080600060a0868803121561371757613716613169565b5b6000613725888289016131bc565b9550506020613736888289016131bc565b945050604086013567ffffffffffffffff8111156137575761375661316e565b5b6137638882890161362c565b935050606086013567ffffffffffffffff8111156137845761378361316e565b5b6137908882890161362c565b925050608086013567ffffffffffffffff8111156137b1576137b061316e565b5b6137bd888289016136cd565b9150509295509295909350565b600080604083850312156137e1576137e0613169565b5b60006137ef858286016131f2565b9250506020613800858286016131f2565b9150509250929050565b600067ffffffffffffffff82111561382557613824613347565b5b602082029050602081019050919050565b60006138496138448461380a565b6133a7565b9050808382526020820190506020840283018581111561386c5761386b6135be565b5b835b81811015613895578061388188826131bc565b84526020840193505060208101905061386e565b5050509392505050565b600082601f8301126138b4576138b361332c565b5b81356138c4848260208601613836565b91505092915050565b600080604083850312156138e4576138e3613169565b5b600083013567ffffffffffffffff8111156139025761390161316e565b5b61390e8582860161389f565b925050602083013567ffffffffffffffff81111561392f5761392e61316e565b5b61393b8582860161362c565b9150509250929050565b600081519050919050565b600082825260208201905092915050565b6000819050602082019050919050565b61397a816131d1565b82525050565b600061398c8383613971565b60208301905092915050565b6000602082019050919050565b60006139b082613945565b6139ba8185613950565b93506139c583613961565b8060005b838110156139f65781516139dd8882613980565b97506139e883613998565b9250506001810190506139c9565b5085935050505092915050565b60006020820190508181036000830152613a1d81846139a5565b905092915050565b600080fd5b60008083601f840112613a4057613a3f61332c565b5b8235905067ffffffffffffffff811115613a5d57613a5c613a25565b5b602083019150836020820283011115613a7957613a786135be565b5b9250929050565b60008060008060408587031215613a9a57613a99613169565b5b600085013567ffffffffffffffff811115613ab857613ab761316e565b5b613ac487828801613a2a565b9450945050602085013567ffffffffffffffff811115613ae757613ae661316e565b5b613af387828801613a2a565b925092505092959194509250565b600080600080600060a08688031215613b1d57613b1c613169565b5b6000613b2b888289016131f2565b9550506020613b3c888289016131f2565b9450506040613b4d888289016131f2565b9350506060613b5e888289016131f2565b9250506080613b6f888289016131f2565b9150509295509295909350565b600080600080600060a08688031215613b9857613b97613169565b5b600086013567ffffffffffffffff811115613bb657613bb561316e565b5b613bc28882890161362c565b955050602086013567ffffffffffffffff811115613be357613be261316e565b5b613bef8882890161362c565b945050604086013567ffffffffffffffff811115613c1057613c0f61316e565b5b613c1c8882890161362c565b935050606086013567ffffffffffffffff811115613c3d57613c3c61316e565b5b613c498882890161362c565b925050608086013567ffffffffffffffff811115613c6a57613c6961316e565b5b613c768882890161362c565b9150509295509295909350565b613c8c81613193565b82525050565b6000602082019050613ca76000830184613c83565b92915050565b613cb6816132f6565b8114613cc157600080fd5b50565b600081359050613cd381613cad565b92915050565b60008060408385031215613cf057613cef613169565b5b6000613cfe858286016131bc565b9250506020613d0f85828601613cc4565b9150509250929050565b6000608082019050613d2e6000830187613247565b613d3b6020830186613247565b613d486040830185613247565b613d556060830184613247565b95945050505050565b60008060408385031215613d7557613d74613169565b5b6000613d83858286016131bc565b9250506020613d94858286016131bc565b9150509250929050565b600080600080600060a08688031215613dba57613db9613169565b5b6000613dc8888289016131bc565b9550506020613dd9888289016131bc565b9450506040613dea888289016131f2565b9350506060613dfb888289016131f2565b925050608086013567ffffffffffffffff811115613e1c57613e1b61316e565b5b613e28888289016136cd565b9150509295509295909350565b600060208284031215613e4b57613e4a613169565b5b6000613e59848285016131bc565b91505092915050565b7f455243313135353a2062616c616e636520717565727920666f7220746865207a60008201527f65726f2061646472657373000000000000000000000000000000000000000000602082015250565b6000613ebe602b836134c6565b9150613ec982613e62565b604082019050919050565b60006020820190508181036000830152613eed81613eb1565b9050919050565b7f4f776e61626c653a2063616c6c6572206973206e6f7420746865206f776e6572600082015250565b6000613f2a6020836134c6565b9150613f3582613ef4565b602082019050919050565b60006020820190508181036000830152613f5981613f1d565b9050919050565b7f4e487b7100000000000000000000000000000000000000000000000000000000600052602260045260246000fd5b60006002820490506001821680613fa757607f821691505b60208210811415613fbb57613fba613f60565b5b50919050565b7f455243313135353a204e4f4e4558495354454e545f544f4b454e000000000000600082015250565b6000613ff7601a836134c6565b915061400282613fc1565b602082019050919050565b6000602082019050818103600083015261402681613fea565b9050919050565b600081905092915050565b60008190508160005260206000209050919050565b6000815461405a81613f8f565b614064818661402d565b9450600182166000811461407f5760018114614090576140c3565b60ff198316865281860193506140c3565b61409985614038565b60005b838110156140bb5781548189015260018201915060208101905061409c565b838801955050505b50505092915050565b60006140d7826134bb565b6140e1818561402d565b93506140f18185602086016134d7565b80840191505092915050565b7f2e6a736f6e000000000000000000000000000000000000000000000000000000600082015250565b600061413360058361402d565b915061413e826140fd565b600582019050919050565b6000614155828561404d565b915061416182846140cc565b915061416c82614126565b91508190509392505050565b7f455243313135353a207472616e736665722063616c6c6572206973206e6f742060008201527f6f776e6572206e6f7220617070726f7665640000000000000000000000000000602082015250565b60006141d46032836134c6565b91506141df82614178565b604082019050919050565b60006020820190508181036000830152614203816141c7565b9050919050565b7f5265656e7472616e637947756172643a207265656e7472616e742063616c6c00600082015250565b6000614240601f836134c6565b915061424b8261420a565b602082019050919050565b6000602082019050818103600083015261426f81614233565b9050919050565b600081905092915050565b50565b6000614291600083614276565b915061429c82614281565b600082019050919050565b60006142b282614284565b9150819050919050565b7f5472616e73666572206661696c65642e00000000000000000000000000000000600082015250565b60006142f26010836134c6565b91506142fd826142bc565b602082019050919050565b60006020820190508181036000830152614321816142e5565b9050919050565b7f455243313135353a206163636f756e747320616e6420696473206c656e67746860008201527f206d69736d617463680000000000000000000000000000000000000000000000602082015250565b60006143846029836134c6565b915061438f82614328565b604082019050919050565b600060208201905081810360008301526143b381614377565b9050919050565b7f4e487b7100000000000000000000000000000000000000000000000000000000600052603260045260246000fd5b7f4e487b7100000000000000000000000000000000000000000000000000000000600052601160045260246000fd5b6000614423826131d1565b91507fffffffffffffffffffffffffffffffffffffffffffffffffffffffffffffffff821415614456576144556143e9565b5b600182019050919050565b7f436c61696d206973206e6f74206163746976652e000000000000000000000000600082015250565b60006144976014836134c6565b91506144a282614461565b602082019050919050565b600060208201905081810360008301526144c68161448a565b9050919050565b7f4d696e74696e67206c696d697420726561636865642e00000000000000000000600082015250565b60006145036016836134c6565b915061450e826144cd565b602082019050919050565b60006020820190508181036000830152614532816144f6565b9050919050565b7f5175616e746974792063616e6e6f7420626520302e0000000000000000000000600082015250565b600061456f6015836134c6565b915061457a82614539565b602082019050919050565b6000602082019050818103600083015261459e81614562565b9050919050565b7f457863656564732077616c6c6574206c696d69742e0000000000000000000000600082015250565b60006145db6015836134c6565b91506145e6826145a5565b602082019050919050565b6000602082019050818103600083015261460a816145ce565b9050919050565b7f45786365656473204e465420706572207472616e73616374696f6e206c696d6960008201527f742e000000000000000000000000000000000000000000000000000000000000602082015250565b600061466d6022836134c6565b915061467882614611565b604082019050919050565b6000602082019050818103600083015261469c81614660565b9050919050565b7f455243313135353a2063616c6c6572206973206e6f74206f776e6572206e6f7260008201527f20617070726f7665640000000000000000000000000000000000000000000000602082015250565b60006146ff6029836134c6565b915061470a826146a3565b604082019050919050565b6000602082019050818103600083015261472e816146f2565b9050919050565b7f4f776e61626c653a206e6577206f776e657220697320746865207a65726f206160008201527f6464726573730000000000000000000000000000000000000000000000000000602082015250565b60006147916026836134c6565b915061479c82614735565b604082019050919050565b600060208201905081810360008301526147c081614784565b9050919050565b7f4e487b7100000000000000000000000000000000000000000000000000000000600052601260045260246000fd5b6000614801826131d1565b915061480c836131d1565b92508261481c5761481b6147c7565b5b828204905092915050565b6000614832826131d1565b915061483d836131d1565b9250828210156148505761484f6143e9565b5b828203905092915050565b6000614866826131d1565b9150614871836131d1565b925082614881576148806147c7565b5b828206905092915050565b6000614897826131d1565b91506148a2836131d1565b9250827fffffffffffffffffffffffffffffffffffffffffffffffffffffffffffffffff038211156148d7576148d66143e9565b5b828201905092915050565b7f455243313135353a2069647320616e6420616d6f756e7473206c656e6774682060008201527f6d69736d61746368000000000000000000000000000000000000000000000000602082015250565b600061493e6028836134c6565b9150614949826148e2565b604082019050919050565b6000602082019050818103600083015261496d81614931565b9050919050565b7f455243313135353a207472616e7366657220746f20746865207a65726f20616460008201527f6472657373000000000000000000000000000000000000000000000000000000602082015250565b60006149d06025836134c6565b91506149db82614974565b604082019050919050565b600060208201905081810360008301526149ff816149c3565b9050919050565b7f455243313135353a20696e73756666696369656e742062616c616e636520666f60008201527f72207472616e7366657200000000000000000000000000000000000000000000602082015250565b6000614a62602a836134c6565b9150614a6d82614a06565b604082019050919050565b60006020820190508181036000830152614a9181614a55565b9050919050565b60006040820190508181036000830152614ab281856139a5565b90508181036020830152614ac681846139a5565b90509392505050565b7f455243313135353a206d696e7420746f20746865207a65726f2061646472657360008201527f7300000000000000000000000000000000000000000000000000000000000000602082015250565b6000614b2b6021836134c6565b9150614b3682614acf565b604082019050919050565b60006020820190508181036000830152614b5a81614b1e565b9050919050565b6000604082019050614b766000830185613247565b614b836020830184613247565b9392505050565b7f455243313135353a2073657474696e6720617070726f76616c2073746174757360008201527f20666f722073656c660000000000000000000000000000000000000000000000602082015250565b6000614be66029836134c6565b9150614bf182614b8a565b604082019050919050565b60006020820190508181036000830152614c1581614bd9565b9050919050565b600081519050919050565b600082825260208201905092915050565b6000614c4382614c1c565b614c4d8185614c27565b9350614c5d8185602086016134d7565b614c6681613336565b840191505092915050565b600060a082019050614c866000830188613c83565b614c936020830187613c83565b8181036040830152614ca581866139a5565b90508181036060830152614cb981856139a5565b90508181036080830152614ccd8184614c38565b90509695505050505050565b600081519050614ce88161329d565b92915050565b600060208284031215614d0457614d03613169565b5b6000614d1284828501614cd9565b91505092915050565b60008160e01c9050919050565b600060033d1115614d475760046000803e614d44600051614d1b565b90505b90565b600060443d1015614d5a57614ddd565b614d6261315f565b60043d036004823e80513d602482011167ffffffffffffffff82111715614d8a575050614ddd565b808201805167ffffffffffffffff811115614da85750505050614ddd565b80602083010160043d038501811115614dc5575050505050614ddd565b614dd482602001850186613376565b82955050505050505b90565b7f455243313135353a207472616e7366657220746f206e6f6e204552433131353560008201527f526563656976657220696d706c656d656e746572000000000000000000000000602082015250565b6000614e3c6034836134c6565b9150614e4782614de0565b604082019050919050565b60006020820190508181036000830152614e6b81614e2f565b9050919050565b7f455243313135353a204552433131353552656365697665722072656a6563746560008201527f6420746f6b656e73000000000000000000000000000000000000000000000000602082015250565b6000614ece6028836134c6565b9150614ed982614e72565b604082019050919050565b60006020820190508181036000830152614efd81614ec1565b9050919050565b600060a082019050614f196000830188613c83565b614f266020830187613c83565b614f336040830186613247565b614f406060830185613247565b8181036080830152614f528184614c38565b9050969550505050505056fea264697066735822122092e06050b94d80bf1eae9044d5ef26b7fa1497f0b4f852f4bac63c1d81f7194664736f6c6343000808003368747470733a2f2f73616d6f74636c75622e6d7970696e6174612e636c6f75642f697066732f516d654c6e31567832464c4d5179704c507151666f6859714574346b4a6e5578354455706333706d7747553835772f",
    "devdoc": {
        "kind": "dev",
        "methods": {
            "balanceOf(address,uint256)": {
                "details": "See {IERC1155-balanceOf}. Requirements: - `account` cannot be the zero address."
            },
            "balanceOfBatch(address[],uint256[])": {
                "details": "See {IERC1155-balanceOfBatch}. Requirements: - `accounts` and `ids` must have the same length."
            },
            "exists(uint256)": {
                "details": "Indicates whether any token exist with a given id, or not."
            },
            "isApprovedForAll(address,address)": {
                "details": "See {IERC1155-isApprovedForAll}."
            },
            "owner()": {
                "details": "Returns the address of the current owner."
            },
            "renounceOwnership()": {
                "details": "Leaves the contract without owner. It will not be possible to call `onlyOwner` functions anymore. Can only be called by the current owner. NOTE: Renouncing ownership will leave the contract without an owner, thereby removing any functionality that is only available to the owner."
            },
            "safeBatchTransferFrom(address,address,uint256[],uint256[],bytes)": {
                "details": "See {IERC1155-safeBatchTransferFrom}."
            },
            "safeTransferFrom(address,address,uint256,uint256,bytes)": {
                "details": "See {IERC1155-safeTransferFrom}."
            },
            "setApprovalForAll(address,bool)": {
                "details": "See {IERC1155-setApprovalForAll}."
            },
            "supportsInterface(bytes4)": {
                "details": "See {IERC165-supportsInterface}."
            },
            "totalSupply(uint256)": {
                "details": "Total amount of tokens in with a given id."
            },
            "transferOwnership(address)": {
                "details": "Transfers ownership of the contract to a new account (`newOwner`). Can only be called by the current owner."
            }
        },
        "title": "Don Rouch WhoIsSamot - an 1155 contract for  0800 Don Rouch",
        "version": 1
    },
    "userdoc": {
        "kind": "user",
        "methods": {},
        "version": 1
    },
    "storageLayout": {
        "storage": [
            {
                "astId": 170,
                "contract": "contracts/DonRouch.sol:DonRouch",
                "label": "_balances",
                "offset": 0,
                "slot": "0",
                "type": "t_mapping(t_uint256,t_mapping(t_address,t_uint256))"
            },
            {
                "astId": 176,
                "contract": "contracts/DonRouch.sol:DonRouch",
                "label": "_operatorApprovals",
                "offset": 0,
                "slot": "1",
                "type": "t_mapping(t_address,t_mapping(t_address,t_bool))"
            },
            {
                "astId": 178,
                "contract": "contracts/DonRouch.sol:DonRouch",
                "label": "_uri",
                "offset": 0,
                "slot": "2",
                "type": "t_string_storage"
            },
            {
                "astId": 1413,
                "contract": "contracts/DonRouch.sol:DonRouch",
                "label": "_totalSupply",
                "offset": 0,
                "slot": "3",
                "type": "t_mapping(t_uint256,t_uint256)"
            },
            {
                "astId": 7,
                "contract": "contracts/DonRouch.sol:DonRouch",
                "label": "_owner",
                "offset": 0,
                "slot": "4",
                "type": "t_address"
            },
            {
                "astId": 115,
                "contract": "contracts/DonRouch.sol:DonRouch",
                "label": "_status",
                "offset": 0,
                "slot": "5",
                "type": "t_uint256"
            },
            {
                "astId": 2452,
                "contract": "contracts/DonRouch.sol:DonRouch",
                "label": "saleIsActive",
                "offset": 0,
                "slot": "6",
                "type": "t_bool"
            },
            {
                "astId": 2454,
                "contract": "contracts/DonRouch.sol:DonRouch",
                "label": "name",
                "offset": 0,
                "slot": "7",
                "type": "t_string_storage"
            },
            {
                "astId": 2456,
                "contract": "contracts/DonRouch.sol:DonRouch",
                "label": "symbol",
                "offset": 0,
                "slot": "8",
                "type": "t_string_storage"
            },
            {
                "astId": 2459,
                "contract": "contracts/DonRouch.sol:DonRouch",
                "label": "baseURI",
                "offset": 0,
                "slot": "9",
                "type": "t_string_storage"
            },
            {
                "astId": 2464,
                "contract": "contracts/DonRouch.sol:DonRouch",
                "label": "idStats",
                "offset": 0,
                "slot": "10",
                "type": "t_mapping(t_uint256,t_struct(itemData)2449_storage)"
            }
        ],
        "types": {
            "t_address": {
                "encoding": "inplace",
                "label": "address",
                "numberOfBytes": "20"
            },
            "t_bool": {
                "encoding": "inplace",
                "label": "bool",
                "numberOfBytes": "1"
            },
            "t_mapping(t_address,t_bool)": {
                "encoding": "mapping",
                "key": "t_address",
                "label": "mapping(address => bool)",
                "numberOfBytes": "32",
                "value": "t_bool"
            },
            "t_mapping(t_address,t_mapping(t_address,t_bool))": {
                "encoding": "mapping",
                "key": "t_address",
                "label": "mapping(address => mapping(address => bool))",
                "numberOfBytes": "32",
                "value": "t_mapping(t_address,t_bool)"
            },
            "t_mapping(t_address,t_uint256)": {
                "encoding": "mapping",
                "key": "t_address",
                "label": "mapping(address => uint256)",
                "numberOfBytes": "32",
                "value": "t_uint256"
            },
            "t_mapping(t_uint256,t_mapping(t_address,t_uint256))": {
                "encoding": "mapping",
                "key": "t_uint256",
                "label": "mapping(uint256 => mapping(address => uint256))",
                "numberOfBytes": "32",
                "value": "t_mapping(t_address,t_uint256)"
            },
            "t_mapping(t_uint256,t_struct(itemData)2449_storage)": {
                "encoding": "mapping",
                "key": "t_uint256",
                "label": "mapping(uint256 => struct DonRouch.itemData)",
                "numberOfBytes": "32",
                "value": "t_struct(itemData)2449_storage"
            },
            "t_mapping(t_uint256,t_uint256)": {
                "encoding": "mapping",
                "key": "t_uint256",
                "label": "mapping(uint256 => uint256)",
                "numberOfBytes": "32",
                "value": "t_uint256"
            },
            "t_string_storage": {
                "encoding": "bytes",
                "label": "string",
                "numberOfBytes": "32"
            },
            "t_struct(itemData)2449_storage": {
                "encoding": "inplace",
                "label": "struct DonRouch.itemData",
                "members": [
                    {
                        "astId": 2442,
                        "contract": "contracts/DonRouch.sol:DonRouch",
                        "label": "maxSupply",
                        "offset": 0,
                        "slot": "0",
                        "type": "t_uint256"
                    },
                    {
                        "astId": 2444,
                        "contract": "contracts/DonRouch.sol:DonRouch",
                        "label": "maxToMint",
                        "offset": 0,
                        "slot": "1",
                        "type": "t_uint256"
                    },
                    {
                        "astId": 2446,
                        "contract": "contracts/DonRouch.sol:DonRouch",
                        "label": "maxPerWallet",
                        "offset": 0,
                        "slot": "2",
                        "type": "t_uint256"
                    },
                    {
                        "astId": 2448,
                        "contract": "contracts/DonRouch.sol:DonRouch",
                        "label": "initialSupply",
                        "offset": 0,
                        "slot": "3",
                        "type": "t_uint256"
                    }
                ],
                "numberOfBytes": "128"
            },
            "t_uint256": {
                "encoding": "inplace",
                "label": "uint256",
                "numberOfBytes": "32"
            }
        }
    }
}